{
  "contractName": "ExerciceSolution",
  "abi": [
    {
      "inputs": [
        {
          "internalType": "string",
          "name": "name",
          "type": "string"
        },
        {
          "internalType": "string",
          "name": "symbol",
          "type": "string"
        }
      ],
      "stateMutability": "nonpayable",
      "type": "constructor"
    },
    {
      "anonymous": false,
      "inputs": [
        {
          "indexed": true,
          "internalType": "address",
          "name": "owner",
          "type": "address"
        },
        {
          "indexed": true,
          "internalType": "address",
          "name": "approved",
          "type": "address"
        },
        {
          "indexed": true,
          "internalType": "uint256",
          "name": "tokenId",
          "type": "uint256"
        }
      ],
      "name": "Approval",
      "type": "event"
    },
    {
      "anonymous": false,
      "inputs": [
        {
          "indexed": true,
          "internalType": "address",
          "name": "owner",
          "type": "address"
        },
        {
          "indexed": true,
          "internalType": "address",
          "name": "operator",
          "type": "address"
        },
        {
          "indexed": false,
          "internalType": "bool",
          "name": "approved",
          "type": "bool"
        }
      ],
      "name": "ApprovalForAll",
      "type": "event"
    },
    {
      "anonymous": false,
      "inputs": [
        {
          "indexed": true,
          "internalType": "address",
          "name": "from",
          "type": "address"
        },
        {
          "indexed": true,
          "internalType": "address",
          "name": "to",
          "type": "address"
        },
        {
          "indexed": true,
          "internalType": "uint256",
          "name": "tokenId",
          "type": "uint256"
        }
      ],
      "name": "Transfer",
      "type": "event"
    },
    {
      "inputs": [
        {
          "internalType": "uint256",
          "name": "",
          "type": "uint256"
        }
      ],
      "name": "JambesCheval",
      "outputs": [
        {
          "internalType": "uint256",
          "name": "",
          "type": "uint256"
        }
      ],
      "stateMutability": "view",
      "type": "function"
    },
    {
      "inputs": [
        {
          "internalType": "uint256",
          "name": "",
          "type": "uint256"
        }
      ],
      "name": "NomCheval",
      "outputs": [
        {
          "internalType": "string",
          "name": "",
          "type": "string"
        }
      ],
      "stateMutability": "view",
      "type": "function"
    },
    {
      "inputs": [
        {
          "internalType": "uint256",
          "name": "",
          "type": "uint256"
        }
      ],
      "name": "Parent1",
      "outputs": [
        {
          "internalType": "uint256",
          "name": "",
          "type": "uint256"
        }
      ],
      "stateMutability": "view",
      "type": "function"
    },
    {
      "inputs": [
        {
          "internalType": "uint256",
          "name": "",
          "type": "uint256"
        }
      ],
      "name": "Parent2",
      "outputs": [
        {
          "internalType": "uint256",
          "name": "",
          "type": "uint256"
        }
      ],
      "stateMutability": "view",
      "type": "function"
    },
    {
      "inputs": [
        {
          "internalType": "uint256",
          "name": "",
          "type": "uint256"
        }
      ],
      "name": "Reproduce",
      "outputs": [
        {
          "internalType": "bool",
          "name": "",
          "type": "bool"
        }
      ],
      "stateMutability": "view",
      "type": "function"
    },
    {
      "inputs": [
        {
          "internalType": "uint256",
          "name": "",
          "type": "uint256"
        }
      ],
      "name": "SexCheval",
      "outputs": [
        {
          "internalType": "uint256",
          "name": "",
          "type": "uint256"
        }
      ],
      "stateMutability": "view",
      "type": "function"
    },
    {
      "inputs": [
        {
          "internalType": "uint256",
          "name": "",
          "type": "uint256"
        }
      ],
      "name": "WingsCheval",
      "outputs": [
        {
          "internalType": "bool",
          "name": "",
          "type": "bool"
        }
      ],
      "stateMutability": "view",
      "type": "function"
    },
    {
      "inputs": [
        {
          "internalType": "address",
          "name": "to",
          "type": "address"
        },
        {
          "internalType": "uint256",
          "name": "tokenId",
          "type": "uint256"
        }
      ],
      "name": "approve",
      "outputs": [],
      "stateMutability": "nonpayable",
      "type": "function"
    },
    {
      "inputs": [
        {
          "internalType": "uint256",
          "name": "",
          "type": "uint256"
        }
      ],
      "name": "authoBreed",
      "outputs": [
        {
          "internalType": "address",
          "name": "",
          "type": "address"
        }
      ],
      "stateMutability": "view",
      "type": "function"
    },
    {
      "inputs": [
        {
          "internalType": "address",
          "name": "owner",
          "type": "address"
        }
      ],
      "name": "balanceOf",
      "outputs": [
        {
          "internalType": "uint256",
          "name": "",
          "type": "uint256"
        }
      ],
      "stateMutability": "view",
      "type": "function"
    },
    {
      "inputs": [],
      "name": "baseURI",
      "outputs": [
        {
          "internalType": "string",
          "name": "",
          "type": "string"
        }
      ],
      "stateMutability": "view",
      "type": "function"
    },
    {
      "inputs": [
        {
          "internalType": "address",
          "name": "",
          "type": "address"
        }
      ],
      "name": "breeder",
      "outputs": [
        {
          "internalType": "bool",
          "name": "",
          "type": "bool"
        }
      ],
      "stateMutability": "view",
      "type": "function"
    },
    {
      "inputs": [
        {
          "internalType": "uint256",
          "name": "",
          "type": "uint256"
        }
      ],
      "name": "forSale",
      "outputs": [
        {
          "internalType": "bool",
          "name": "",
          "type": "bool"
        }
      ],
      "stateMutability": "view",
      "type": "function"
    },
    {
      "inputs": [
        {
          "internalType": "uint256",
          "name": "tokenId",
          "type": "uint256"
        }
      ],
      "name": "getApproved",
      "outputs": [
        {
          "internalType": "address",
          "name": "",
          "type": "address"
        }
      ],
      "stateMutability": "view",
      "type": "function"
    },
    {
      "inputs": [
        {
          "internalType": "uint256",
          "name": "",
          "type": "uint256"
        }
      ],
      "name": "indexToken",
      "outputs": [
        {
          "internalType": "address",
          "name": "",
          "type": "address"
        }
      ],
      "stateMutability": "view",
      "type": "function"
    },
    {
      "inputs": [
        {
          "internalType": "address",
          "name": "owner",
          "type": "address"
        },
        {
          "internalType": "address",
          "name": "operator",
          "type": "address"
        }
      ],
      "name": "isApprovedForAll",
      "outputs": [
        {
          "internalType": "bool",
          "name": "",
          "type": "bool"
        }
      ],
      "stateMutability": "view",
      "type": "function"
    },
    {
      "inputs": [],
      "name": "name",
      "outputs": [
        {
          "internalType": "string",
          "name": "",
          "type": "string"
        }
      ],
      "stateMutability": "view",
      "type": "function"
    },
    {
      "inputs": [
        {
          "internalType": "uint256",
          "name": "tokenId",
          "type": "uint256"
        }
      ],
      "name": "ownerOf",
      "outputs": [
        {
          "internalType": "address",
          "name": "",
          "type": "address"
        }
      ],
      "stateMutability": "view",
      "type": "function"
    },
    {
      "inputs": [],
      "name": "priceRegister",
      "outputs": [
        {
          "internalType": "uint256",
          "name": "",
          "type": "uint256"
        }
      ],
      "stateMutability": "view",
      "type": "function"
    },
    {
      "inputs": [],
      "name": "priceRp",
      "outputs": [
        {
          "internalType": "uint256",
          "name": "",
          "type": "uint256"
        }
      ],
      "stateMutability": "view",
      "type": "function"
    },
    {
      "inputs": [
        {
          "internalType": "uint256",
          "name": "",
          "type": "uint256"
        }
      ],
      "name": "priceSale",
      "outputs": [
        {
          "internalType": "uint256",
          "name": "",
          "type": "uint256"
        }
      ],
      "stateMutability": "view",
      "type": "function"
    },
    {
      "inputs": [
        {
          "internalType": "address",
          "name": "from",
          "type": "address"
        },
        {
          "internalType": "address",
          "name": "to",
          "type": "address"
        },
        {
          "internalType": "uint256",
          "name": "tokenId",
          "type": "uint256"
        }
      ],
      "name": "safeTransferFrom",
      "outputs": [],
      "stateMutability": "nonpayable",
      "type": "function"
    },
    {
      "inputs": [
        {
          "internalType": "address",
          "name": "from",
          "type": "address"
        },
        {
          "internalType": "address",
          "name": "to",
          "type": "address"
        },
        {
          "internalType": "uint256",
          "name": "tokenId",
          "type": "uint256"
        },
        {
          "internalType": "bytes",
          "name": "_data",
          "type": "bytes"
        }
      ],
      "name": "safeTransferFrom",
      "outputs": [],
      "stateMutability": "nonpayable",
      "type": "function"
    },
    {
      "inputs": [
        {
          "internalType": "address",
          "name": "operator",
          "type": "address"
        },
        {
          "internalType": "bool",
          "name": "approved",
          "type": "bool"
        }
      ],
      "name": "setApprovalForAll",
      "outputs": [],
      "stateMutability": "nonpayable",
      "type": "function"
    },
    {
      "inputs": [
        {
          "internalType": "bytes4",
          "name": "interfaceId",
          "type": "bytes4"
        }
      ],
      "name": "supportsInterface",
      "outputs": [
        {
          "internalType": "bool",
          "name": "",
          "type": "bool"
        }
      ],
      "stateMutability": "view",
      "type": "function"
    },
    {
      "inputs": [],
      "name": "symbol",
      "outputs": [
        {
          "internalType": "string",
          "name": "",
          "type": "string"
        }
      ],
      "stateMutability": "view",
      "type": "function"
    },
    {
      "inputs": [
        {
          "internalType": "uint256",
          "name": "index",
          "type": "uint256"
        }
      ],
      "name": "tokenByIndex",
      "outputs": [
        {
          "internalType": "uint256",
          "name": "",
          "type": "uint256"
        }
      ],
      "stateMutability": "view",
      "type": "function"
    },
    {
      "inputs": [
        {
          "internalType": "address",
          "name": "owner",
          "type": "address"
        },
        {
          "internalType": "uint256",
          "name": "index",
          "type": "uint256"
        }
      ],
      "name": "tokenOfOwnerByIndex",
      "outputs": [
        {
          "internalType": "uint256",
          "name": "",
          "type": "uint256"
        }
      ],
      "stateMutability": "view",
      "type": "function"
    },
    {
      "inputs": [
        {
          "internalType": "uint256",
          "name": "tokenId",
          "type": "uint256"
        }
      ],
      "name": "tokenURI",
      "outputs": [
        {
          "internalType": "string",
          "name": "",
          "type": "string"
        }
      ],
      "stateMutability": "view",
      "type": "function"
    },
    {
      "inputs": [],
      "name": "totalSupply",
      "outputs": [
        {
          "internalType": "uint256",
          "name": "",
          "type": "uint256"
        }
      ],
      "stateMutability": "view",
      "type": "function"
    },
    {
      "inputs": [
        {
          "internalType": "address",
          "name": "from",
          "type": "address"
        },
        {
          "internalType": "address",
          "name": "to",
          "type": "address"
        },
        {
          "internalType": "uint256",
          "name": "tokenId",
          "type": "uint256"
        }
      ],
      "name": "transferFrom",
      "outputs": [],
      "stateMutability": "nonpayable",
      "type": "function"
    },
    {
      "inputs": [
        {
          "internalType": "address",
          "name": "account",
          "type": "address"
        }
      ],
      "name": "sendToken",
      "outputs": [],
      "stateMutability": "nonpayable",
      "type": "function"
    },
    {
      "inputs": [
        {
          "internalType": "address",
          "name": "account",
          "type": "address"
        }
      ],
      "name": "isBreeder",
      "outputs": [
        {
          "internalType": "bool",
          "name": "",
          "type": "bool"
        }
      ],
      "stateMutability": "nonpayable",
      "type": "function"
    },
    {
      "inputs": [],
      "name": "registrationPrice",
      "outputs": [
        {
          "internalType": "uint256",
          "name": "",
          "type": "uint256"
        }
      ],
      "stateMutability": "nonpayable",
      "type": "function"
    },
    {
      "inputs": [],
      "name": "registerMeAsBreeder",
      "outputs": [],
      "stateMutability": "payable",
      "type": "function"
    },
    {
      "inputs": [
        {
          "internalType": "uint256",
          "name": "sex",
          "type": "uint256"
        },
        {
          "internalType": "uint256",
          "name": "legs",
          "type": "uint256"
        },
        {
          "internalType": "bool",
          "name": "wings",
          "type": "bool"
        },
        {
          "internalType": "string",
          "name": "name",
          "type": "string"
        }
      ],
      "name": "declareAnimal",
      "outputs": [
        {
          "internalType": "uint256",
          "name": "",
          "type": "uint256"
        }
      ],
      "stateMutability": "nonpayable",
      "type": "function"
    },
    {
      "inputs": [
        {
          "internalType": "uint256",
          "name": "animalNumber",
          "type": "uint256"
        }
      ],
      "name": "getAnimalCharacteristics",
      "outputs": [
        {
          "internalType": "string",
          "name": "_name",
          "type": "string"
        },
        {
          "internalType": "bool",
          "name": "_wings",
          "type": "bool"
        },
        {
          "internalType": "uint256",
          "name": "_legs",
          "type": "uint256"
        },
        {
          "internalType": "uint256",
          "name": "_sex",
          "type": "uint256"
        }
      ],
      "stateMutability": "nonpayable",
      "type": "function"
    },
    {
      "inputs": [],
      "name": "getRang",
      "outputs": [
        {
          "internalType": "uint256",
          "name": "",
          "type": "uint256"
        }
      ],
      "stateMutability": "nonpayable",
      "type": "function"
    },
    {
      "inputs": [
        {
          "internalType": "uint256",
          "name": "animalNumber",
          "type": "uint256"
        }
      ],
      "name": "declareDeadAnimal",
      "outputs": [],
      "stateMutability": "nonpayable",
      "type": "function"
    },
    {
      "inputs": [
        {
          "internalType": "uint256",
          "name": "animalNumber",
          "type": "uint256"
        }
      ],
      "name": "isAnimalForSale",
      "outputs": [
        {
          "internalType": "bool",
          "name": "",
          "type": "bool"
        }
      ],
      "stateMutability": "view",
      "type": "function"
    },
    {
      "inputs": [
        {
          "internalType": "uint256",
          "name": "animalNumber",
          "type": "uint256"
        }
      ],
      "name": "animalPrice",
      "outputs": [
        {
          "internalType": "uint256",
          "name": "",
          "type": "uint256"
        }
      ],
      "stateMutability": "view",
      "type": "function"
    },
    {
      "inputs": [
        {
          "internalType": "uint256",
          "name": "animalNumber",
          "type": "uint256"
        }
      ],
      "name": "buyAnimal",
      "outputs": [],
      "stateMutability": "payable",
      "type": "function"
    },
    {
      "inputs": [
        {
          "internalType": "uint256",
          "name": "animalNumber",
          "type": "uint256"
        },
        {
          "internalType": "uint256",
          "name": "price",
          "type": "uint256"
        }
      ],
      "name": "offerForSale",
      "outputs": [],
      "stateMutability": "nonpayable",
      "type": "function"
    },
    {
      "inputs": [
        {
          "internalType": "address",
          "name": "Eval",
          "type": "address"
        }
      ],
      "name": "registerEvaluator",
      "outputs": [],
      "stateMutability": "nonpayable",
      "type": "function"
    },
    {
      "inputs": [
        {
          "internalType": "uint256",
          "name": "sex",
          "type": "uint256"
        },
        {
          "internalType": "uint256",
          "name": "legs",
          "type": "uint256"
        },
        {
          "internalType": "bool",
          "name": "wings",
          "type": "bool"
        },
        {
          "internalType": "string",
          "name": "name",
          "type": "string"
        },
        {
          "internalType": "uint256",
          "name": "parent1",
          "type": "uint256"
        },
        {
          "internalType": "uint256",
          "name": "parent2",
          "type": "uint256"
        }
      ],
      "name": "declareAnimalWithParents",
      "outputs": [
        {
          "internalType": "uint256",
          "name": "id",
          "type": "uint256"
        }
      ],
      "stateMutability": "nonpayable",
      "type": "function"
    },
    {
      "inputs": [
        {
          "internalType": "uint256",
          "name": "animalNumber",
          "type": "uint256"
        }
      ],
      "name": "getParents",
      "outputs": [
        {
          "internalType": "uint256",
          "name": "parent1",
          "type": "uint256"
        },
        {
          "internalType": "uint256",
          "name": "parent2",
          "type": "uint256"
        }
      ],
      "stateMutability": "nonpayable",
      "type": "function"
    },
    {
      "inputs": [
        {
          "internalType": "uint256",
          "name": "animalNumber",
          "type": "uint256"
        }
      ],
      "name": "canReproduce",
      "outputs": [
        {
          "internalType": "bool",
          "name": "",
          "type": "bool"
        }
      ],
      "stateMutability": "nonpayable",
      "type": "function"
    },
    {
      "inputs": [
        {
          "internalType": "uint256",
          "name": "animalNumber",
          "type": "uint256"
        }
      ],
      "name": "reproductionPrice",
      "outputs": [
        {
          "internalType": "uint256",
          "name": "",
          "type": "uint256"
        }
      ],
      "stateMutability": "nonpayable",
      "type": "function"
    },
    {
      "inputs": [
        {
          "internalType": "uint256",
          "name": "animalNumber",
          "type": "uint256"
        },
        {
          "internalType": "uint256",
          "name": "price",
          "type": "uint256"
        }
      ],
      "name": "offerForReproduction",
      "outputs": [
        {
          "internalType": "uint256",
          "name": "",
          "type": "uint256"
        }
      ],
      "stateMutability": "nonpayable",
      "type": "function"
    },
    {
      "inputs": [
        {
          "internalType": "uint256",
          "name": "animalNumber",
          "type": "uint256"
        }
      ],
      "name": "authorizedBreederToReproduce",
      "outputs": [
        {
          "internalType": "address",
          "name": "",
          "type": "address"
        }
      ],
      "stateMutability": "nonpayable",
      "type": "function"
    },
    {
      "inputs": [
        {
          "internalType": "uint256",
          "name": "animalNumber",
          "type": "uint256"
        }
      ],
      "name": "payForReproduction",
      "outputs": [],
      "stateMutability": "payable",
      "type": "function"
    },
    {
      "inputs": [
        {
          "internalType": "address",
          "name": "a",
          "type": "address"
        },
        {
          "internalType": "uint256",
          "name": "animalNumber",
          "type": "uint256"
        }
      ],
      "name": "authorizedBreederEval7",
      "outputs": [],
      "stateMutability": "nonpayable",
      "type": "function"
    },
    {
      "inputs": [
        {
          "internalType": "address",
          "name": "a",
          "type": "address"
        },
        {
          "internalType": "uint256",
          "name": "animalNumber",
          "type": "uint256"
        }
      ],
      "name": "removeBreedEval7",
      "outputs": [],
      "stateMutability": "nonpayable",
      "type": "function"
    }
  ],
  "bytecode": "0x60806040523480156200001157600080fd5b506040516200513f3803806200513f833981810160405260408110156200003757600080fd5b81019080805160405193929190846401000000008211156200005857600080fd5b838201915060208201858111156200006f57600080fd5b82518660018202830111640100000000821117156200008d57600080fd5b8083526020830192505050908051906020019080838360005b83811015620000c3578082015181840152602081019050620000a6565b50505050905090810190601f168015620000f15780820380516001836020036101000a031916815260200191505b50604052602001805160405193929190846401000000008211156200011557600080fd5b838201915060208201858111156200012c57600080fd5b82518660018202830111640100000000821117156200014a57600080fd5b8083526020830192505050908051906020019080838360005b838110156200018057808201518184015260208101905062000163565b50505050905090810190601f168015620001ae5780820380516001836020036101000a031916815260200191505b506040525050508181620001cf6301ffc9a760e01b6200027160201b60201c565b8160069080519060200190620001e79291906200037a565b508060079080519060200190620002009291906200037a565b50620002196380ac58cd60e01b6200027160201b60201c565b62000231635b5e139f60e01b6200027160201b60201c565b6200024963780e9d6360e01b6200027160201b60201c565b50506001601681905550662386f26fc100006017819055506000601881905550505062000429565b63ffffffff60e01b817bffffffffffffffffffffffffffffffffffffffffffffffffffffffff191614156200030e576040517f08c379a000000000000000000000000000000000000000000000000000000000815260040180806020018281038252601c8152602001807f4552433136353a20696e76616c696420696e746572666163652069640000000081525060200191505060405180910390fd5b6001600080837bffffffffffffffffffffffffffffffffffffffffffffffffffffffff19167bffffffffffffffffffffffffffffffffffffffffffffffffffffffff1916815260200190815260200160002060006101000a81548160ff02191690831515021790555050565b828054600181600116156101000203166002900490600052602060002090601f016020900481019282601f10620003bd57805160ff1916838001178555620003ee565b82800160010185558215620003ee579182015b82811115620003ed578251825591602001919060010190620003d0565b5b509050620003fd919062000401565b5090565b6200042691905b808211156200042257600081600090555060010162000408565b5090565b90565b614d0680620004396000396000f3fe60806040526004361061031a5760003560e01c80635d1c50f0116101ab578063b75e0750116100f7578063c87b56dd11610095578063d300140e1161006f578063d300140e14611689578063e985e9c51461173d578063ec897772146117c6578063ff36ed98146118015761031a565b8063c87b56dd14611557578063cb31d91c1461160b578063ccbbb7931461165e5761031a565b8063c05855ac116100d1578063c05855ac1461141f578063c575c2381461144a578063c5f51f731461149b578063c7b9cb0b146114ee5761031a565b8063b75e0750146111c5578063b88d4fde14611292578063b8994e0f146113a45761031a565b8063882217241161016457806395d89b411161013e57806395d89b411461103057806396733a5f146110c0578063a0c32c8f1461110f578063a22cb465146111685761031a565b80638822172414610ea857806389b17f6514610f11578063929c13e314610f625761031a565b80635d1c50f014610c555780636352211e14610ca45780636c0360eb14610d1f57806370a0823114610daf57806372fe4a9314610e1457806377386df314610e635761031a565b80632a4672b21161026a5780633dae09a01161022357806342842e0e116101fd57806342842e0e14610abd5780634abda8c814610b385780634f6ccce714610b8b5780635ae3a87014610bda5761031a565b80633dae09a014610a0557806341d30bae14610a6057806341e07d9b14610a6a5761031a565b80632a4672b2146107945780632adfd4c4146107e35780632e9507571461083e5780632f745c591461088d57806332b0f376146108fc5780633573dbd1146109b65761031a565b806318160ddd116102d757806323b872dd116102b157806323b872dd146105f5578063242a00871461067057806327aa8f31146106c65780632831f2f4146107415761031a565b806318160ddd146105715780631a14e94a1461059c57806321658658146105ca5761031a565b806301ffc9a71461031f57806306fdde0314610391578063081812fc14610421578063095ea7b31461049c57806310838756146104f757806313c2db7714610546575b600080fd5b34801561032b57600080fd5b506103776004803603602081101561034257600080fd5b8101908080357bffffffffffffffffffffffffffffffffffffffffffffffffffffffff1916906020019092919050505061182f565b604051808215151515815260200191505060405180910390f35b34801561039d57600080fd5b506103a6611896565b6040518080602001828103825283818151815260200191508051906020019080838360005b838110156103e65780820151818401526020810190506103cb565b50505050905090810190601f1680156104135780820380516001836020036101000a031916815260200191505b509250505060405180910390f35b34801561042d57600080fd5b5061045a6004803603602081101561044457600080fd5b8101908080359060200190929190505050611938565b604051808273ffffffffffffffffffffffffffffffffffffffff1673ffffffffffffffffffffffffffffffffffffffff16815260200191505060405180910390f35b3480156104a857600080fd5b506104f5600480360360408110156104bf57600080fd5b81019080803573ffffffffffffffffffffffffffffffffffffffff169060200190929190803590602001909291905050506119d3565b005b34801561050357600080fd5b506105306004803603602081101561051a57600080fd5b8101908080359060200190929190505050611b17565b6040518082815260200191505060405180910390f35b34801561055257600080fd5b5061055b611b2f565b6040518082815260200191505060405180910390f35b34801561057d57600080fd5b50610586611b39565b6040518082815260200191505060405180910390f35b6105c8600480360360208110156105b257600080fd5b8101908080359060200190929190505050611b4a565b005b3480156105d657600080fd5b506105df611cb8565b6040518082815260200191505060405180910390f35b34801561060157600080fd5b5061066e6004803603606081101561061857600080fd5b81019080803573ffffffffffffffffffffffffffffffffffffffff169060200190929190803573ffffffffffffffffffffffffffffffffffffffff16906020019092919080359060200190929190505050611cc2565b005b34801561067c57600080fd5b506106a96004803603602081101561069357600080fd5b8101908080359060200190929190505050611d38565b604051808381526020018281526020019250505060405180910390f35b3480156106d257600080fd5b506106ff600480360360208110156106e957600080fd5b8101908080359060200190929190505050611d6c565b604051808273ffffffffffffffffffffffffffffffffffffffff1673ffffffffffffffffffffffffffffffffffffffff16815260200191505060405180910390f35b34801561074d57600080fd5b5061077a6004803603602081101561076457600080fd5b8101908080359060200190929190505050611da9565b604051808215151515815260200191505060405180910390f35b3480156107a057600080fd5b506107cd600480360360208110156107b757600080fd5b8101908080359060200190929190505050611dc9565b6040518082815260200191505060405180910390f35b3480156107ef57600080fd5b5061083c6004803603604081101561080657600080fd5b81019080803573ffffffffffffffffffffffffffffffffffffffff16906020019092919080359060200190929190505050611dd5565b005b34801561084a57600080fd5b506108776004803603602081101561086157600080fd5b8101908080359060200190929190505050611e0f565b6040518082815260200191505060405180910390f35b34801561089957600080fd5b506108e6600480360360408110156108b057600080fd5b81019080803573ffffffffffffffffffffffffffffffffffffffff16906020019092919080359060200190929190505050611e27565b6040518082815260200191505060405180910390f35b34801561090857600080fd5b506109a06004803603608081101561091f57600080fd5b8101908080359060200190929190803590602001909291908035151590602001909291908035906020019064010000000081111561095c57600080fd5b82018360208201111561096e57600080fd5b8035906020019184600183028401116401000000008311171561099057600080fd5b9091929391929390505050611e82565b6040518082815260200191505060405180910390f35b3480156109c257600080fd5b506109ef600480360360208110156109d957600080fd5b8101908080359060200190929190505050611f8a565b6040518082815260200191505060405180910390f35b348015610a1157600080fd5b50610a5e60048036036040811015610a2857600080fd5b81019080803573ffffffffffffffffffffffffffffffffffffffff16906020019092919080359060200190929190505050611fde565b005b610a68612034565b005b348015610a7657600080fd5b50610aa360048036036020811015610a8d57600080fd5b8101908080359060200190929190505050612105565b604051808215151515815260200191505060405180910390f35b348015610ac957600080fd5b50610b3660048036036060811015610ae057600080fd5b81019080803573ffffffffffffffffffffffffffffffffffffffff169060200190929190803573ffffffffffffffffffffffffffffffffffffffff16906020019092919080359060200190929190505050612125565b005b348015610b4457600080fd5b50610b7160048036036020811015610b5b57600080fd5b8101908080359060200190929190505050612145565b604051808215151515815260200191505060405180910390f35b348015610b9757600080fd5b50610bc460048036036020811015610bae57600080fd5b810190808035906020019092919050505061216f565b6040518082815260200191505060405180910390f35b348015610be657600080fd5b50610c1360048036036020811015610bfd57600080fd5b8101908080359060200190929190505050612192565b604051808273ffffffffffffffffffffffffffffffffffffffff1673ffffffffffffffffffffffffffffffffffffffff16815260200191505060405180910390f35b348015610c6157600080fd5b50610c8e60048036036020811015610c7857600080fd5b81019080803590602001909291905050506121c5565b6040518082815260200191505060405180910390f35b348015610cb057600080fd5b50610cdd60048036036020811015610cc757600080fd5b81019080803590602001909291905050506121dd565b604051808273ffffffffffffffffffffffffffffffffffffffff1673ffffffffffffffffffffffffffffffffffffffff16815260200191505060405180910390f35b348015610d2b57600080fd5b50610d34612214565b6040518080602001828103825283818151815260200191508051906020019080838360005b83811015610d74578082015181840152602081019050610d59565b50505050905090810190601f168015610da15780820380516001836020036101000a031916815260200191505b509250505060405180910390f35b348015610dbb57600080fd5b50610dfe60048036036020811015610dd257600080fd5b81019080803573ffffffffffffffffffffffffffffffffffffffff1690602001909291905050506122b6565b6040518082815260200191505060405180910390f35b348015610e2057600080fd5b50610e4d60048036036020811015610e3757600080fd5b810190808035906020019092919050505061238b565b6040518082815260200191505060405180910390f35b348015610e6f57600080fd5b50610ea660048036036040811015610e8657600080fd5b8101908080359060200190929190803590602001909291905050506123a3565b005b348015610eb457600080fd5b50610ef760048036036020811015610ecb57600080fd5b81019080803573ffffffffffffffffffffffffffffffffffffffff1690602001909291905050506123eb565b604051808215151515815260200191505060405180910390f35b348015610f1d57600080fd5b50610f6060048036036020811015610f3457600080fd5b81019080803573ffffffffffffffffffffffffffffffffffffffff16906020019092919050505061240b565b005b348015610f6e57600080fd5b5061101a600480360360c0811015610f8557600080fd5b81019080803590602001909291908035906020019092919080351515906020019092919080359060200190640100000000811115610fc257600080fd5b820183602082011115610fd457600080fd5b80359060200191846001830284011164010000000083111715610ff657600080fd5b90919293919293908035906020019092919080359060200190929190505050612466565b6040518082815260200191505060405180910390f35b34801561103c57600080fd5b50611045612754565b6040518080602001828103825283818151815260200191508051906020019080838360005b8381101561108557808201518184015260208101905061106a565b50505050905090810190601f1680156110b25780820380516001836020036101000a031916815260200191505b509250505060405180910390f35b3480156110cc57600080fd5b506110f9600480360360208110156110e357600080fd5b81019080803590602001909291905050506127f6565b6040518082815260200191505060405180910390f35b34801561111b57600080fd5b506111526004803603604081101561113257600080fd5b81019080803590602001909291908035906020019092919050505061280e565b6040518082815260200191505060405180910390f35b34801561117457600080fd5b506111c36004803603604081101561118b57600080fd5b81019080803573ffffffffffffffffffffffffffffffffffffffff1690602001909291908035151590602001909291905050506128f5565b005b3480156111d157600080fd5b506111fe600480360360208110156111e857600080fd5b8101908080359060200190929190505050612aad565b604051808060200185151515158152602001848152602001838152602001828103825286818151815260200191508051906020019080838360005b83811015611254578082015181840152602081019050611239565b50505050905090810190601f1680156112815780820380516001836020036101000a031916815260200191505b509550505050505060405180910390f35b34801561129e57600080fd5b506113a2600480360360808110156112b557600080fd5b81019080803573ffffffffffffffffffffffffffffffffffffffff169060200190929190803573ffffffffffffffffffffffffffffffffffffffff169060200190929190803590602001909291908035906020019064010000000081111561131c57600080fd5b82018360208201111561132e57600080fd5b8035906020019184600183028401116401000000008311171561135057600080fd5b91908080601f016020809104026020016040519081016040528093929190818152602001838380828437600081840152601f19601f820116905080830192505050505050509192919290505050612bc4565b005b3480156113b057600080fd5b506113dd600480360360208110156113c757600080fd5b8101908080359060200190929190505050612c3c565b604051808273ffffffffffffffffffffffffffffffffffffffff1673ffffffffffffffffffffffffffffffffffffffff16815260200191505060405180910390f35b34801561142b57600080fd5b50611434612c6f565b6040518082815260200191505060405180910390f35b34801561145657600080fd5b506114996004803603602081101561146d57600080fd5b81019080803573ffffffffffffffffffffffffffffffffffffffff169060200190929190505050612c75565b005b3480156114a757600080fd5b506114d4600480360360208110156114be57600080fd5b8101908080359060200190929190505050612cd8565b604051808215151515815260200191505060405180910390f35b3480156114fa57600080fd5b5061153d6004803603602081101561151157600080fd5b81019080803573ffffffffffffffffffffffffffffffffffffffff169060200190929190505050612d02565b604051808215151515815260200191505060405180910390f35b34801561156357600080fd5b506115906004803603602081101561157a57600080fd5b8101908080359060200190929190505050612d58565b6040518080602001828103825283818151815260200191508051906020019080838360005b838110156115d05780820151818401526020810190506115b5565b50505050905090810190601f1680156115fd5780820380516001836020036101000a031916815260200191505b509250505060405180910390f35b34801561161757600080fd5b506116446004803603602081101561162e57600080fd5b8101908080359060200190929190505050613029565b604051808215151515815260200191505060405180910390f35b34801561166a57600080fd5b50611673613049565b6040518082815260200191505060405180910390f35b34801561169557600080fd5b506116c2600480360360208110156116ac57600080fd5b810190808035906020019092919050505061304f565b6040518080602001828103825283818151815260200191508051906020019080838360005b838110156117025780820151818401526020810190506116e7565b50505050905090810190601f16801561172f5780820380516001836020036101000a031916815260200191505b509250505060405180910390f35b34801561174957600080fd5b506117ac6004803603604081101561176057600080fd5b81019080803573ffffffffffffffffffffffffffffffffffffffff169060200190929190803573ffffffffffffffffffffffffffffffffffffffff1690602001909291905050506130ff565b604051808215151515815260200191505060405180910390f35b3480156117d257600080fd5b506117ff600480360360208110156117e957600080fd5b8101908080359060200190929190505050613193565b005b61182d6004803603602081101561181757600080fd5b8101908080359060200190929190505050613313565b005b6000806000837bffffffffffffffffffffffffffffffffffffffffffffffffffffffff19167bffffffffffffffffffffffffffffffffffffffffffffffffffffffff1916815260200190815260200160002060009054906101000a900460ff169050919050565b606060068054600181600116156101000203166002900480601f01602080910402602001604051908101604052809291908181526020018280546001816001161561010002031660029004801561192e5780601f106119035761010080835404028352916020019161192e565b820191906000526020600020905b81548152906001019060200180831161191157829003601f168201915b5050505050905090565b600061194382613451565b611998576040517f08c379a000000000000000000000000000000000000000000000000000000000815260040180806020018281038252602c815260200180614bfb602c913960400191505060405180910390fd5b6004600083815260200190815260200160002060009054906101000a900473ffffffffffffffffffffffffffffffffffffffff169050919050565b60006119de826121dd565b90508073ffffffffffffffffffffffffffffffffffffffff168373ffffffffffffffffffffffffffffffffffffffff161415611a65576040517f08c379a0000000000000000000000000000000000000000000000000000000008152600401808060200182810382526021815260200180614c7f6021913960400191505060405180910390fd5b8073ffffffffffffffffffffffffffffffffffffffff16611a8461346e565b73ffffffffffffffffffffffffffffffffffffffff161480611ab35750611ab281611aad61346e565b6130ff565b5b611b08576040517f08c379a0000000000000000000000000000000000000000000000000000000008152600401808060200182810382526038815260200180614b4e6038913960400191505060405180910390fd5b611b128383613476565b505050565b60136020528060005260406000206000915090505481565b6000601654905090565b6000611b45600261352f565b905090565b6010600082815260200190815260200160002060009054906101000a900460ff16611b7457600080fd5b60006060611b81836121dd565b73ffffffffffffffffffffffffffffffffffffffff163460405180600001905060006040518083038185875af1925050503d8060008114611bde576040519150601f19603f3d011682016040523d82523d6000602084013e611be3565b606091505b509150915081611c5b576040517f08c379a00000000000000000000000000000000000000000000000000000000081526004018080602001828103825260188152602001807f4661696c656420746f207472616e73666572204574686572000000000000000081525060200191505060405180910390fd5b611c6e611c67846121dd565b3385613544565b60006010600085815260200190815260200160002060006101000a81548160ff02191690831515021790555060006011600085815260200190815260200160002081905550505050565b6000601754905090565b611cd3611ccd61346e565b82613787565b611d28576040517f08c379a0000000000000000000000000000000000000000000000000000000008152600401808060200182810382526031815260200180614ca06031913960400191505060405180910390fd5b611d33838383613544565b505050565b6000806012600084815260200190815260200160002054601360008581526020019081526020016000205491509150915091565b60006015600083815260200190815260200160002060009054906101000a900473ffffffffffffffffffffffffffffffffffffffff169050919050565b60106020528060005260406000206000915054906101000a900460ff1681565b60006018549050919050565b6015600082815260200190815260200160002060006101000a81549073ffffffffffffffffffffffffffffffffffffffff02191690555050565b600d6020528060005260406000206000915090505481565b6000611e7a82600160008673ffffffffffffffffffffffffffffffffffffffff1673ffffffffffffffffffffffffffffffffffffffff16815260200190815260200160002061387b90919063ffffffff16565b905092915050565b60006016600081548092919060010191905055508282600a600060165481526020019081526020016000209190611eba929190614916565b5083600b6000601654815260200190815260200160002060006101000a81548160ff02191690831515021790555084600c600060165481526020019081526020016000208190555085600d6000601654815260200190815260200160002081905550611f2833601654613895565b33600f6000601654815260200190815260200160002060006101000a81548173ffffffffffffffffffffffffffffffffffffffff021916908373ffffffffffffffffffffffffffffffffffffffff160217905550601654905095945050505050565b6000600115156010600084815260200190815260200160002060009054906101000a900460ff1615151415611fd45760116000838152602001908152602001600020549050611fd9565b600090505b919050565b816015600083815260200190815260200160002060006101000a81548173ffffffffffffffffffffffffffffffffffffffff021916908373ffffffffffffffffffffffffffffffffffffffff1602179055505050565b60175434146120ab576040517f08c379a00000000000000000000000000000000000000000000000000000000081526004018080602001828103825260148152602001807f596f75206e65656420746f20706179206d6f726500000000000000000000000081525060200191505060405180910390fd5b6001600e60003373ffffffffffffffffffffffffffffffffffffffff1673ffffffffffffffffffffffffffffffffffffffff16815260200190815260200160002060006101000a81548160ff021916908315150217905550565b60146020528060005260406000206000915054906101000a900460ff1681565b61214083838360405180602001604052806000815250612bc4565b505050565b60006014600083815260200190815260200160002060009054906101000a900460ff169050919050565b600080612186836002613a8990919063ffffffff16565b50905080915050919050565b60156020528060005260406000206000915054906101000a900473ffffffffffffffffffffffffffffffffffffffff1681565b600c6020528060005260406000206000915090505481565b600061220d82604051806060016040528060298152602001614bb0602991396002613ab89092919063ffffffff16565b9050919050565b606060098054600181600116156101000203166002900480601f0160208091040260200160405190810160405280929190818152602001828054600181600116156101000203166002900480156122ac5780601f10612281576101008083540402835291602001916122ac565b820191906000526020600020905b81548152906001019060200180831161228f57829003601f168201915b5050505050905090565b60008073ffffffffffffffffffffffffffffffffffffffff168273ffffffffffffffffffffffffffffffffffffffff16141561233d576040517f08c379a000000000000000000000000000000000000000000000000000000000815260040180806020018281038252602a815260200180614b86602a913960400191505060405180910390fd5b612384600160008473ffffffffffffffffffffffffffffffffffffffff1673ffffffffffffffffffffffffffffffffffffffff168152602001908152602001600020613ad7565b9050919050565b60126020528060005260406000206000915090505481565b60016010600084815260200190815260200160002060006101000a81548160ff0219169083151502179055508060116000848152602001908152602001600020819055505050565b600e6020528060005260406000206000915054906101000a900460ff1681565b6001600e60008373ffffffffffffffffffffffffffffffffffffffff1673ffffffffffffffffffffffffffffffffffffffff16815260200190815260200160002060006101000a81548160ff02191690831515021790555050565b60003073ffffffffffffffffffffffffffffffffffffffff166327aa8f31836040518263ffffffff1660e01b815260040180828152602001915050602060405180830381600087803b1580156124bb57600080fd5b505af11580156124cf573d6000803e3d6000fd5b505050506040513d60208110156124e557600080fd5b810190808051906020019092919050505073ffffffffffffffffffffffffffffffffffffffff163373ffffffffffffffffffffffffffffffffffffffff1614612596576040517f08c379a000000000000000000000000000000000000000000000000000000000815260040180806020018281038252601d8152602001807f55736572206e6f7420616c6c6f77656420746f20726570726f6475636500000081525060200191505060405180910390fd5b6016600081548092919060010191905055508484600a6000601654815260200190815260200160002091906125cc929190614916565b5085600b6000601654815260200190815260200160002060006101000a81548160ff02191690831515021790555086600c600060165481526020019081526020016000208190555087600d60006016548152602001908152602001600020819055508260126000601654815260200190815260200160002081905550816013600060165481526020019081526020016000208190555033600f6000601654815260200190815260200160002060006101000a81548173ffffffffffffffffffffffffffffffffffffffff021916908373ffffffffffffffffffffffffffffffffffffffff16021790555060006014600085815260200190815260200160002060006101000a81548160ff02191690831515021790555060006014600084815260200190815260200160002060006101000a81548160ff0219169083151502179055506015600083815260200190815260200160002060006101000a81549073ffffffffffffffffffffffffffffffffffffffff02191690556016549050979650505050505050565b606060078054600181600116156101000203166002900480601f0160208091040260200160405190810160405280929190818152602001828054600181600116156101000203166002900480156127ec5780601f106127c1576101008083540402835291602001916127ec565b820191906000526020600020905b8154815290600101906020018083116127cf57829003601f168201915b5050505050905090565b60116020528060005260406000206000915090505481565b6000612819836121dd565b73ffffffffffffffffffffffffffffffffffffffff163373ffffffffffffffffffffffffffffffffffffffff16146128b9576040517f08c379a00000000000000000000000000000000000000000000000000000000081526004018080602001828103825260058152602001807f456368656300000000000000000000000000000000000000000000000000000081525060200191505060405180910390fd5b60016014600085815260200190815260200160002060006101000a81548160ff0219169083151502179055508160188190555082905092915050565b6128fd61346e565b73ffffffffffffffffffffffffffffffffffffffff168273ffffffffffffffffffffffffffffffffffffffff16141561299e576040517f08c379a00000000000000000000000000000000000000000000000000000000081526004018080602001828103825260198152602001807f4552433732313a20617070726f766520746f2063616c6c65720000000000000081525060200191505060405180910390fd5b80600560006129ab61346e565b73ffffffffffffffffffffffffffffffffffffffff1673ffffffffffffffffffffffffffffffffffffffff16815260200190815260200160002060008473ffffffffffffffffffffffffffffffffffffffff1673ffffffffffffffffffffffffffffffffffffffff16815260200190815260200160002060006101000a81548160ff0219169083151502179055508173ffffffffffffffffffffffffffffffffffffffff16612a5861346e565b73ffffffffffffffffffffffffffffffffffffffff167f17307eab39ab6107e8899845ad3d59bd9653f200f220920489ca2b5937696c3183604051808215151515815260200191505060405180910390a35050565b60606000806000600a60008681526020019081526020016000208054600181600116156101000203166002900480601f016020809104026020016040519081016040528092919081815260200182805460018160011615610100020316600290048015612b5b5780601f10612b3057610100808354040283529160200191612b5b565b820191906000526020600020905b815481529060010190602001808311612b3e57829003601f168201915b50505050509350600b600086815260200190815260200160002060009054906101000a900460ff169250600c6000868152602001908152602001600020549150600d60008681526020019081526020016000205490508383838393509350935093509193509193565b612bd5612bcf61346e565b83613787565b612c2a576040517f08c379a0000000000000000000000000000000000000000000000000000000008152600401808060200182810382526031815260200180614ca06031913960400191505060405180910390fd5b612c3684848484613aec565b50505050565b600f6020528060005260406000206000915054906101000a900473ffffffffffffffffffffffffffffffffffffffff1681565b60175481565b612c8181601654613895565b80600f6000601654815260200190815260200160002060006101000a81548173ffffffffffffffffffffffffffffffffffffffff021916908373ffffffffffffffffffffffffffffffffffffffff16021790555050565b60006010600083815260200190815260200160002060009054906101000a900460ff169050919050565b6000600e60008373ffffffffffffffffffffffffffffffffffffffff1673ffffffffffffffffffffffffffffffffffffffff16815260200190815260200160002060009054906101000a900460ff169050919050565b6060612d6382613451565b612db8576040517f08c379a000000000000000000000000000000000000000000000000000000000815260040180806020018281038252602f815260200180614c50602f913960400191505060405180910390fd5b6060600860008481526020019081526020016000208054600181600116156101000203166002900480601f016020809104026020016040519081016040528092919081815260200182805460018160011615610100020316600290048015612e615780601f10612e3657610100808354040283529160200191612e61565b820191906000526020600020905b815481529060010190602001808311612e4457829003601f168201915b505050505090506060612e72612214565b9050600081511415612e88578192505050613024565b600082511115612f595780826040516020018083805190602001908083835b60208310612eca5780518252602082019150602081019050602083039250612ea7565b6001836020036101000a03801982511681845116808217855250505050505090500182805190602001908083835b60208310612f1b5780518252602082019150602081019050602083039250612ef8565b6001836020036101000a0380198251168184511680821785525050505050509050019250505060405160208183030381529060405292505050613024565b80612f6385613b5e565b6040516020018083805190602001908083835b60208310612f995780518252602082019150602081019050602083039250612f76565b6001836020036101000a03801982511681845116808217855250505050505090500182805190602001908083835b60208310612fea5780518252602082019150602081019050602083039250612fc7565b6001836020036101000a03801982511681845116808217855250505050505090500192505050604051602081830303815290604052925050505b919050565b600b6020528060005260406000206000915054906101000a900460ff1681565b60185481565b600a6020528060005260406000206000915090508054600181600116156101000203166002900480601f0160208091040260200160405190810160405280929190818152602001828054600181600116156101000203166002900480156130f75780601f106130cc576101008083540402835291602001916130f7565b820191906000526020600020905b8154815290600101906020018083116130da57829003601f168201915b505050505081565b6000600560008473ffffffffffffffffffffffffffffffffffffffff1673ffffffffffffffffffffffffffffffffffffffff16815260200190815260200160002060008373ffffffffffffffffffffffffffffffffffffffff1673ffffffffffffffffffffffffffffffffffffffff16815260200190815260200160002060009054906101000a900460ff16905092915050565b3373ffffffffffffffffffffffffffffffffffffffff166131b3826121dd565b73ffffffffffffffffffffffffffffffffffffffff161461323c576040517f08c379a00000000000000000000000000000000000000000000000000000000081526004018080602001828103825260058152602001807f456368656300000000000000000000000000000000000000000000000000000081525060200191505060405180910390fd5b61324581613c8e565b60405180602001604052806000815250600a6000838152602001908152602001600020908051906020019061327b929190614996565b506000600b600083815260200190815260200160002060006101000a81548160ff0219169083151502179055506000600c6000838152602001908152602001600020819055506000600d600083815260200190815260200160002081905550600f600082815260200190815260200160002060006101000a81549073ffffffffffffffffffffffffffffffffffffffff021916905550565b60006060613320836121dd565b73ffffffffffffffffffffffffffffffffffffffff163460405180600001905060006040518083038185875af1925050503d806000811461337d576040519150601f19603f3d011682016040523d82523d6000602084013e613382565b606091505b5091509150816133fa576040517f08c379a00000000000000000000000000000000000000000000000000000000081526004018080602001828103825260188152602001807f4661696c656420746f207472616e73666572204574686572000000000000000081525060200191505060405180910390fd5b336015600085815260200190815260200160002060006101000a81548173ffffffffffffffffffffffffffffffffffffffff021916908373ffffffffffffffffffffffffffffffffffffffff160217905550505050565b6000613467826002613dc890919063ffffffff16565b9050919050565b600033905090565b816004600083815260200190815260200160002060006101000a81548173ffffffffffffffffffffffffffffffffffffffff021916908373ffffffffffffffffffffffffffffffffffffffff160217905550808273ffffffffffffffffffffffffffffffffffffffff166134e9836121dd565b73ffffffffffffffffffffffffffffffffffffffff167f8c5be1e5ebec7d5bd14f71427d1e84f3dd0314c0f7b2291e5b200ac8c7c3b92560405160405180910390a45050565b600061353d82600001613de2565b9050919050565b8273ffffffffffffffffffffffffffffffffffffffff16613564826121dd565b73ffffffffffffffffffffffffffffffffffffffff16146135d0576040517f08c379a0000000000000000000000000000000000000000000000000000000008152600401808060200182810382526029815260200180614c276029913960400191505060405180910390fd5b600073ffffffffffffffffffffffffffffffffffffffff168273ffffffffffffffffffffffffffffffffffffffff161415613656576040517f08c379a0000000000000000000000000000000000000000000000000000000008152600401808060200182810382526024815260200180614ad86024913960400191505060405180910390fd5b613661838383613df3565b61366c600082613476565b6136bd81600160008673ffffffffffffffffffffffffffffffffffffffff1673ffffffffffffffffffffffffffffffffffffffff168152602001908152602001600020613df890919063ffffffff16565b5061370f81600160008573ffffffffffffffffffffffffffffffffffffffff1673ffffffffffffffffffffffffffffffffffffffff168152602001908152602001600020613e1290919063ffffffff16565b5061372681836002613e2c9092919063ffffffff16565b50808273ffffffffffffffffffffffffffffffffffffffff168473ffffffffffffffffffffffffffffffffffffffff167fddf252ad1be2c89b69c2b068fc378daa952ba7f163c4a11628f55a4df523b3ef60405160405180910390a4505050565b600061379282613451565b6137e7576040517f08c379a000000000000000000000000000000000000000000000000000000000815260040180806020018281038252602c815260200180614b22602c913960400191505060405180910390fd5b60006137f2836121dd565b90508073ffffffffffffffffffffffffffffffffffffffff168473ffffffffffffffffffffffffffffffffffffffff16148061386157508373ffffffffffffffffffffffffffffffffffffffff1661384984611938565b73ffffffffffffffffffffffffffffffffffffffff16145b80613872575061387181856130ff565b5b91505092915050565b600061388a8360000183613e61565b60001c905092915050565b600073ffffffffffffffffffffffffffffffffffffffff168273ffffffffffffffffffffffffffffffffffffffff161415613938576040517f08c379a00000000000000000000000000000000000000000000000000000000081526004018080602001828103825260208152602001807f4552433732313a206d696e7420746f20746865207a65726f206164647265737381525060200191505060405180910390fd5b61394181613451565b156139b4576040517f08c379a000000000000000000000000000000000000000000000000000000000815260040180806020018281038252601c8152602001807f4552433732313a20746f6b656e20616c7265616479206d696e7465640000000081525060200191505060405180910390fd5b6139c060008383613df3565b613a1181600160008573ffffffffffffffffffffffffffffffffffffffff1673ffffffffffffffffffffffffffffffffffffffff168152602001908152602001600020613e1290919063ffffffff16565b50613a2881836002613e2c9092919063ffffffff16565b50808273ffffffffffffffffffffffffffffffffffffffff16600073ffffffffffffffffffffffffffffffffffffffff167fddf252ad1be2c89b69c2b068fc378daa952ba7f163c4a11628f55a4df523b3ef60405160405180910390a45050565b600080600080613a9c8660000186613ee4565b915091508160001c8160001c8090509350935050509250929050565b6000613acb846000018460001b84613f7d565b60001c90509392505050565b6000613ae582600001614073565b9050919050565b613af7848484613544565b613b0384848484614084565b613b58576040517f08c379a0000000000000000000000000000000000000000000000000000000008152600401808060200182810382526032815260200180614aa66032913960400191505060405180910390fd5b50505050565b60606000821415613ba6576040518060400160405280600181526020017f30000000000000000000000000000000000000000000000000000000000000008152509050613c89565b600082905060005b60008214613bd0578080600101915050600a8281613bc857fe5b049150613bae565b6060816040519080825280601f01601f191660200182016040528015613c055781602001600182028038833980820191505090505b50905060006001830390508593505b60008414613c8157600a8481613c2657fe5b0660300160f81b82828060019003935081518110613c4057fe5b60200101907effffffffffffffffffffffffffffffffffffffffffffffffffffffffffffff1916908160001a905350600a8481613c7957fe5b049350613c14565b819450505050505b919050565b6000613c99826121dd565b9050613ca781600084613df3565b613cb2600083613476565b60006008600084815260200190815260200160002080546001816001161561010002031660029004905014613d0157600860008381526020019081526020016000206000613d009190614a16565b5b613d5282600160008473ffffffffffffffffffffffffffffffffffffffff1673ffffffffffffffffffffffffffffffffffffffff168152602001908152602001600020613df890919063ffffffff16565b50613d678260026142c990919063ffffffff16565b5081600073ffffffffffffffffffffffffffffffffffffffff168273ffffffffffffffffffffffffffffffffffffffff167fddf252ad1be2c89b69c2b068fc378daa952ba7f163c4a11628f55a4df523b3ef60405160405180910390a45050565b6000613dda836000018360001b6142e3565b905092915050565b600081600001805490509050919050565b505050565b6000613e0a836000018360001b614306565b905092915050565b6000613e24836000018360001b6143ee565b905092915050565b6000613e58846000018460001b8473ffffffffffffffffffffffffffffffffffffffff1660001b61445e565b90509392505050565b600081836000018054905011613ec2576040517f08c379a0000000000000000000000000000000000000000000000000000000008152600401808060200182810382526022815260200180614a846022913960400191505060405180910390fd5b826000018281548110613ed157fe5b9060005260206000200154905092915050565b60008082846000018054905011613f46576040517f08c379a0000000000000000000000000000000000000000000000000000000008152600401808060200182810382526022815260200180614bd96022913960400191505060405180910390fd5b6000846000018481548110613f5757fe5b906000526020600020906002020190508060000154816001015492509250509250929050565b60008084600101600085815260200190815260200160002054905060008114158390614044576040517f08c379a00000000000000000000000000000000000000000000000000000000081526004018080602001828103825283818151815260200191508051906020019080838360005b83811015614009578082015181840152602081019050613fee565b50505050905090810190601f1680156140365780820380516001836020036101000a031916815260200191505b509250505060405180910390fd5b5084600001600182038154811061405757fe5b9060005260206000209060020201600101549150509392505050565b600081600001805490509050919050565b60006140a58473ffffffffffffffffffffffffffffffffffffffff1661453a565b6140b257600190506142c1565b606061424863150b7a0260e01b6140c761346e565b888787604051602401808573ffffffffffffffffffffffffffffffffffffffff1673ffffffffffffffffffffffffffffffffffffffff1681526020018473ffffffffffffffffffffffffffffffffffffffff1673ffffffffffffffffffffffffffffffffffffffff16815260200183815260200180602001828103825283818151815260200191508051906020019080838360005b8381101561417757808201518184015260208101905061415c565b50505050905090810190601f1680156141a45780820380516001836020036101000a031916815260200191505b5095505050505050604051602081830303815290604052907bffffffffffffffffffffffffffffffffffffffffffffffffffffffff19166020820180517bffffffffffffffffffffffffffffffffffffffffffffffffffffffff8381831617835250505050604051806060016040528060328152602001614aa6603291398773ffffffffffffffffffffffffffffffffffffffff1661454d9092919063ffffffff16565b9050600081806020019051602081101561426157600080fd5b8101908080519060200190929190505050905063150b7a0260e01b7bffffffffffffffffffffffffffffffffffffffffffffffffffffffff1916817bffffffffffffffffffffffffffffffffffffffffffffffffffffffff191614925050505b949350505050565b60006142db836000018360001b614565565b905092915050565b600080836001016000848152602001908152602001600020541415905092915050565b600080836001016000848152602001908152602001600020549050600081146143e2576000600182039050600060018660000180549050039050600086600001828154811061435157fe5b906000526020600020015490508087600001848154811061436e57fe5b90600052602060002001819055506001830187600101600083815260200190815260200160002081905550866000018054806143a657fe5b600190038181906000526020600020016000905590558660010160008781526020019081526020016000206000905560019450505050506143e8565b60009150505b92915050565b60006143fa838361467e565b614453578260000182908060018154018082558091505060019003906000526020600020016000909190919091505582600001805490508360010160008481526020019081526020016000208190555060019050614458565b600090505b92915050565b600080846001016000858152602001908152602001600020549050600081141561450557846000016040518060400160405280868152602001858152509080600181540180825580915050600190039060005260206000209060020201600090919091909150600082015181600001556020820151816001015550508460000180549050856001016000868152602001908152602001600020819055506001915050614533565b8285600001600183038154811061451857fe5b90600052602060002090600202016001018190555060009150505b9392505050565b600080823b905060008111915050919050565b606061455c84846000856146a1565b90509392505050565b6000808360010160008481526020019081526020016000205490506000811461467257600060018203905060006001866000018054905003905060008660000182815481106145b057fe5b90600052602060002090600202019050808760000184815481106145d057fe5b906000526020600020906002020160008201548160000155600182015481600101559050506001830187600101600083600001548152602001908152602001600020819055508660000180548061462357fe5b6001900381819060005260206000209060020201600080820160009055600182016000905550509055866001016000878152602001908152602001600020600090556001945050505050614678565b60009150505b92915050565b600080836001016000848152602001908152602001600020541415905092915050565b6060824710156146fc576040517f08c379a0000000000000000000000000000000000000000000000000000000008152600401808060200182810382526026815260200180614afc6026913960400191505060405180910390fd5b6147058561453a565b614777576040517f08c379a000000000000000000000000000000000000000000000000000000000815260040180806020018281038252601d8152602001807f416464726573733a2063616c6c20746f206e6f6e2d636f6e747261637400000081525060200191505060405180910390fd5b600060608673ffffffffffffffffffffffffffffffffffffffff1685876040518082805190602001908083835b602083106147c757805182526020820191506020810190506020830392506147a4565b6001836020036101000a03801982511681845116808217855250505050505090500191505060006040518083038185875af1925050503d8060008114614829576040519150601f19603f3d011682016040523d82523d6000602084013e61482e565b606091505b509150915061483e82828661484a565b92505050949350505050565b6060831561485a5782905061490f565b60008351111561486d5782518084602001fd5b816040517f08c379a00000000000000000000000000000000000000000000000000000000081526004018080602001828103825283818151815260200191508051906020019080838360005b838110156148d45780820151818401526020810190506148b9565b50505050905090810190601f1680156149015780820380516001836020036101000a031916815260200191505b509250505060405180910390fd5b9392505050565b828054600181600116156101000203166002900490600052602060002090601f016020900481019282601f1061495757803560ff1916838001178555614985565b82800160010185558215614985579182015b82811115614984578235825591602001919060010190614969565b5b5090506149929190614a5e565b5090565b828054600181600116156101000203166002900490600052602060002090601f016020900481019282601f106149d757805160ff1916838001178555614a05565b82800160010185558215614a05579182015b82811115614a045782518255916020019190600101906149e9565b5b509050614a129190614a5e565b5090565b50805460018160011615610100020316600290046000825580601f10614a3c5750614a5b565b601f016020900490600052602060002090810190614a5a9190614a5e565b5b50565b614a8091905b80821115614a7c576000816000905550600101614a64565b5090565b9056fe456e756d657261626c655365743a20696e646578206f7574206f6620626f756e64734552433732313a207472616e7366657220746f206e6f6e20455243373231526563656976657220696d706c656d656e7465724552433732313a207472616e7366657220746f20746865207a65726f2061646472657373416464726573733a20696e73756666696369656e742062616c616e636520666f722063616c6c4552433732313a206f70657261746f7220717565727920666f72206e6f6e6578697374656e7420746f6b656e4552433732313a20617070726f76652063616c6c6572206973206e6f74206f776e6572206e6f7220617070726f76656420666f7220616c6c4552433732313a2062616c616e636520717565727920666f7220746865207a65726f20616464726573734552433732313a206f776e657220717565727920666f72206e6f6e6578697374656e7420746f6b656e456e756d657261626c654d61703a20696e646578206f7574206f6620626f756e64734552433732313a20617070726f76656420717565727920666f72206e6f6e6578697374656e7420746f6b656e4552433732313a207472616e73666572206f6620746f6b656e2074686174206973206e6f74206f776e4552433732314d657461646174613a2055524920717565727920666f72206e6f6e6578697374656e7420746f6b656e4552433732313a20617070726f76616c20746f2063757272656e74206f776e65724552433732313a207472616e736665722063616c6c6572206973206e6f74206f776e6572206e6f7220617070726f766564a2646970667358221220d22427aec05bdd5739fbcd34916558f40e43050644c18cff63eb71c21c8d59d164736f6c63430006020033",
  "source": "pragma solidity ^0.6.0;\r\nimport \"@openzeppelin/contracts/token/ERC721/ERC721.sol\";\r\n\r\n\r\ncontract ExerciceSolution is ERC721\r\n{\r\n\r\n\tmapping(uint256 => string) public NomCheval;\r\n\tmapping(uint256 => bool) public WingsCheval;\r\n\tmapping(uint256 => uint) public JambesCheval;\r\n\tmapping(uint256 => uint) public SexCheval;\r\n\r\n\tmapping(address => bool) public breeder;\r\n\tmapping(uint => address) public indexToken;\r\n\tmapping(uint => bool) public forSale;\r\n\tmapping(uint => uint) public priceSale;\r\n\tmapping(uint => uint) public Parent1;\r\n\tmapping(uint => uint) public Parent2;\r\n\tmapping(uint => bool) public Reproduce;\r\n\r\n\tmapping(uint => address) public authoBreed;\r\n\r\n\tuint256 private rang; \r\n\tuint256 public priceRegister;\r\n\tuint256 public priceRp;\r\n\t\r\n\r\n    constructor (string memory name, string memory symbol) public ERC721(name,symbol){\r\n\t\trang=1;\r\n\t\tpriceRegister=0.01 ether;\r\n\t\tpriceRp=0;\r\n    }\r\n\r\n\tfunction sendToken(address account) external{\r\n\t\t_mint(account,rang);\r\n\t\tindexToken[rang]=account;\r\n\t}\r\n\r\n\tfunction isBreeder(address account) external returns (bool)\r\n\t{\r\n\t\treturn breeder[account];\r\n\t}\r\n\r\n\tfunction registrationPrice() external returns (uint256)\r\n\t{\r\n\t\treturn priceRegister;\r\n\t}\r\n\r\n\tfunction registerMeAsBreeder() external payable\r\n\t{\r\n\t\trequire(msg.value == priceRegister, \"You need to pay more\");\r\n\t\tbreeder[msg.sender] = true;\r\n\t}\r\n\r\n\tfunction declareAnimal(uint sex, uint legs, bool wings, string calldata name) external returns (uint256)\r\n\t{\r\n\t\trang++;\r\n\t\tNomCheval[rang]=name;\r\n\t\tWingsCheval[rang]=wings;\r\n\t\tJambesCheval[rang]=legs;\r\n\t\tSexCheval[rang]=sex;\r\n\t\t_mint(msg.sender,rang);\r\n\t\tindexToken[rang]=msg.sender;\r\n\t\treturn rang;\r\n\t}\r\n\r\n\tfunction getAnimalCharacteristics(uint animalNumber) external returns (string memory _name, bool _wings, uint _legs, uint _sex)\r\n\t{\r\n\t\t_name=NomCheval[animalNumber];\r\n\t\t_wings=WingsCheval[animalNumber];\r\n\t\t_legs=JambesCheval[animalNumber];\r\n\t\t_sex=SexCheval[animalNumber];\r\n\t\treturn (_name,_wings,_legs,_sex);\r\n\t}\r\n\r\n\tfunction getRang() public returns(uint256)\r\n\t{\r\n\t\treturn rang;\r\n\t}\r\n\r\n\tfunction declareDeadAnimal(uint animalNumber) external\r\n\t{\r\n\t\trequire(ownerOf(animalNumber) == msg.sender,\"Echec\");\r\n\t\t_burn(animalNumber);\r\n\t\tNomCheval[animalNumber]=\"\";\r\n\t\tWingsCheval[animalNumber]=false;\r\n\t\tJambesCheval[animalNumber]=0;\r\n\t\tSexCheval[animalNumber]=0;\r\n\t\tdelete indexToken[animalNumber];\r\n\t}\r\n\r\n\t//SELL\r\n\r\n\tfunction isAnimalForSale(uint animalNumber) external view returns (bool)\r\n\t{\r\n\t\treturn forSale[animalNumber];\r\n\t}\r\n\r\n\tfunction animalPrice(uint animalNumber) external view returns (uint256)\r\n\t{\r\n\t\tif (forSale[animalNumber]==true)\r\n\t\t{\r\n\t\t\treturn priceSale[animalNumber];\r\n\t\t}\r\n\t\telse{\r\n\t\t\treturn 0;\r\n\t\t}\r\n\t}\r\n\r\n\tfunction buyAnimal(uint animalNumber) external payable\r\n\t{\r\n\t\trequire(forSale[animalNumber]);\r\n\r\n\t\t(bool sent, bytes memory data) = ownerOf(animalNumber).call{value: msg.value}(\"\");\r\n\t\trequire(sent, \"Failed to transfer Ether\");\r\n\r\n\r\n\t\t_transfer(ownerOf(animalNumber), msg.sender, animalNumber);\r\n\t\tforSale[animalNumber]=false;\r\n\t\tpriceSale[animalNumber]=0;\r\n\t}\r\n\r\n\tfunction offerForSale(uint animalNumber, uint price) external\r\n\t{\r\n\t\tforSale[animalNumber]=true;\r\n\t\tpriceSale[animalNumber]=price;\r\n\r\n\t}\r\n\r\n\tfunction registerEvaluator(address Eval) external\r\n\t{\r\n\t\tbreeder[Eval]=true;\r\n\t}\r\n\r\n\t//PARENTS\r\n\r\n\tfunction declareAnimalWithParents(uint sex, uint legs, bool wings, string calldata name,uint parent1, uint parent2) external returns(uint id)\r\n\t{\r\n\t\trequire(msg.sender == this.authorizedBreederToReproduce(parent2), \"User not allowed to reproduce\");\r\n\t\trang++;\r\n\t\tNomCheval[rang]=name;\r\n\t\tWingsCheval[rang]=wings;\r\n\t\tJambesCheval[rang]=legs;\r\n\t\tSexCheval[rang]=sex;\r\n\t\tParent1[rang]=parent1;\r\n\t\tParent2[rang]=parent2;\r\n\t\tindexToken[rang]=msg.sender;\r\n\r\n\t\tReproduce[parent1]=false;\r\n\t\tReproduce[parent2]=false;\r\n\t\tdelete authoBreed[parent2];\r\n\r\n\t\treturn rang;\r\n\t}\r\n\r\n\tfunction getParents(uint animalNumber) external returns(uint parent1, uint parent2)\r\n\t{\r\n\t\treturn (Parent1[animalNumber],Parent2[animalNumber]);\r\n\t}\r\n\r\n\r\n\t//REPRODUCTION\r\n\r\n\tfunction canReproduce(uint animalNumber) external returns (bool)\r\n\t{\r\n\t\treturn Reproduce[animalNumber];\r\n\t}\r\n\r\n\tfunction reproductionPrice(uint animalNumber) external returns (uint256)\r\n\t{\r\n\t\treturn priceRp;\r\n\t}\r\n\r\n\tfunction offerForReproduction(uint animalNumber, uint price) external returns(uint256)\r\n\t{\r\n\t\trequire(msg.sender==ownerOf(animalNumber),\"Echec\");\r\n\t\tReproduce[animalNumber]=true;\r\n\t\tpriceRp=price;\r\n\t\treturn animalNumber;\r\n\t}\r\n\r\n\tfunction authorizedBreederToReproduce(uint animalNumber) external returns(address)\r\n\t{\r\n\t\treturn (authoBreed[animalNumber]);\r\n\t}\r\n\r\n\tfunction payForReproduction(uint animalNumber) external payable\r\n\t{\r\n\t\t(bool sent, bytes memory data) = ownerOf(animalNumber).call{value: msg.value}(\"\");\r\n\t\trequire(sent, \"Failed to transfer Ether\");\r\n\r\n\t\tauthoBreed[animalNumber]=msg.sender;\r\n\t}\r\n\r\n\tfunction authorizedBreederEval7(address a, uint animalNumber) external \r\n\t{\r\n\t\tauthoBreed[animalNumber]=a;\r\n\t}\r\n\r\n\tfunction removeBreedEval7(address a, uint animalNumber) external \r\n\t{\r\n\t\tdelete authoBreed[animalNumber];\r\n\t}\r\n}",
  "sourcePath": "C:\\Users\\Rayan\\Downloads\\TD ERC721\\contracts\\ExerciceSolution.sol",
  "compiler": {
    "name": "solc",
    "version": "0.6.2+commit.bacdbe57.Emscripten.clang"
  },
  "schemaVersion": "3.4.3",
  "updatedAt": "2021-12-09T19:02:56.172Z",
  "devdoc": {
    "methods": {
      "approve(address,uint256)": {
        "details": "See {IERC721-approve}."
      },
      "balanceOf(address)": {
        "details": "See {IERC721-balanceOf}."
      },
      "baseURI()": {
        "details": "Returns the base URI set via {_setBaseURI}. This will be automatically added as a prefix in {tokenURI} to each token's URI, or to the token ID if no specific URI is set for that token ID."
      },
      "getApproved(uint256)": {
        "details": "See {IERC721-getApproved}."
      },
      "isApprovedForAll(address,address)": {
        "details": "See {IERC721-isApprovedForAll}."
      },
      "name()": {
        "details": "See {IERC721Metadata-name}."
      },
      "ownerOf(uint256)": {
        "details": "See {IERC721-ownerOf}."
      },
      "safeTransferFrom(address,address,uint256)": {
        "details": "See {IERC721-safeTransferFrom}."
      },
      "safeTransferFrom(address,address,uint256,bytes)": {
        "details": "See {IERC721-safeTransferFrom}."
      },
      "setApprovalForAll(address,bool)": {
        "details": "See {IERC721-setApprovalForAll}."
      },
      "supportsInterface(bytes4)": {
        "details": "See {IERC165-supportsInterface}.     * Time complexity O(1), guaranteed to always use less than 30 000 gas."
      },
      "symbol()": {
        "details": "See {IERC721Metadata-symbol}."
      },
      "tokenByIndex(uint256)": {
        "details": "See {IERC721Enumerable-tokenByIndex}."
      },
      "tokenOfOwnerByIndex(address,uint256)": {
        "details": "See {IERC721Enumerable-tokenOfOwnerByIndex}."
      },
      "tokenURI(uint256)": {
        "details": "See {IERC721Metadata-tokenURI}."
      },
      "totalSupply()": {
        "details": "See {IERC721Enumerable-totalSupply}."
      },
      "transferFrom(address,address,uint256)": {
        "details": "See {IERC721-transferFrom}."
      }
    }
  },
  "userdoc": {
    "methods": {}
  }
}